:100000000C9462000C948A000C948A000C948A0070
:100010000C948A000C948A000C948A000C948A0038
:100020000C948A000C948A000C948A000C948A0028
:100030000C948A000C948A000C948A000C948A0018
:100040000C942D040C948A000C94FB030C94D5039F
:100050000C948A000C948A000C948A000C948A00F8
:100060000C948A000C948A000000000024002700F1
:100070002A0000000000250028002B0000000008D6
:10008000000201000003040700000000000000005F
:1000900000000000230026002900040404040404D6
:1000A0000404020202020202030303030303010227
:1000B00004081020408001020408102001020408F6
:1000C0001020BC0411241FBECFEFD8E0DEBFCDBF8F
:1000D00011E0A0E0B1E0EAE3FFE002C005900D927C
:1000E000AA32B107D9F721E0AAE2B1E001C01D921E
:1000F000A83EB207E1F710E0C2E6D0E004C02197C5
:10010000FE010E949507C136D107C9F70E94060576
:100110000C949B070C940000AF92BF92CF92DF9299
:10012000EF92FF920F931F93CF93DF936C017B01AC
:100130008B01040F151FEB015E01AE18BF08C0173D
:10014000D10759F06991D601ED91FC910190F081B0
:10015000E02DC6010995892B79F7C501DF91CF9173
:100160001F910F91FF90EF90DF90CF90BF90AF90D5
:100170000895FC01538D448D252F30E0842F90E0AD
:10018000821B930B541710F0CF9608950197089592
:10019000FC01918D828D981761F0A28DAE0FBF2F5B
:1001A000B11D5D968C91928D9F5F9F73928F90E0B1
:1001B00008958FEF9FEF0895FC01918D828D981720
:1001C00031F0828DE80FF11D858D90E008958FEF5D
:1001D0009FEF0895FC01918D228D892F90E0805C26
:1001E0009F4F821B91098F739927089583E391E0B4
:1001F0000E94EA0021E0892B09F420E0822F089573
:1002000080E090E0892B29F00E94F60081110C9487
:1002100000000895FC01A48DA80FB92FB11DA35AA9
:10022000BF4F2C91848D90E001968F739927848F16
:10023000A689B7892C93A089B1898C918370806439
:100240008C93938D848D981306C00288F389E02DDA
:1002500080818F7D80830895EF92FF920F931F938B
:10026000CF93DF93EC0181E0888F9B8D8C8D981369
:100270001AC0E889F989808185FF15C09FB7F89475
:10028000EE89FF896083E889F989808183708064C1
:1002900080839FBF81E090E0DF91CF911F910F910C
:1002A000FF90EF900895F62E0B8D10E00F5F1F4F1B
:1002B0000F731127E02E8C8D8E110CC00FB607FC2A
:1002C000FACFE889F989808185FFF5CFCE010E94B8
:1002D0000A01F1CFEB8DEC0FFD2FF11DE35AFF4F1B
:1002E000F0829FB7F8940B8FEA89FB898081806246
:1002F000CFCFCF93DF93EC01888D8823B9F0AA8903
:10030000BB89E889F9898C9185FD03C0808186FDD0
:100310000DC00FB607FCF7CF8C9185FFF2CF80811F
:1003200085FFEDCFCE010E940A01E9CFDF91CF9189
:10033000089590E0FC01E458FF4F2491FC01E25540
:10034000FF4F3491FC01E656FF4FE491EE23C9F0D4
:10035000222339F0233001F1A8F4213019F12230A1
:1003600029F1F0E0EE0FFF1FEE58FF4FA591B49179
:100370008FB7F894EC91611126C030953E233C93E1
:100380008FBF08952730A9F02830C9F0243049F7ED
:10039000809180008F7D03C0809180008F77809353
:1003A0008000DFCF84B58F7784BDDBCF84B58F7DB0
:1003B000FBCF8091B0008F778093B000D2CF809137
:1003C000B0008F7DF9CF3E2BDACFCF93DF9390E053
:1003D000FC01E255FF4F249186569F4FFC0184910A
:1003E0008823D1F090E0880F991FFC01E859FF4F56
:1003F000A591B491FC01EE58FF4FC591D4916111C4
:100400000EC09FB7F8948C91E22FE0958E238C93C9
:100410002881E223E8839FBFDF91CF9108958FB7B2
:10042000F894EC91E22BEC938FBFF6CF3FB7F894A2
:1004300080912F0190913001A0913101B091320152
:1004400026B5A89B05C02F3F19F00196A11DB11D2F
:100450003FBFBA2FA92F982F8827BC01CD01620F6B
:10046000711D811D911D42E0660F771F881F991F26
:100470004A95D1F70895089590E080E008958F920D
:100480009F92AF92BF920F931F93CF93DF93CDB7FD
:10049000DEB7A1970FB6F894DEBF0FBECDBF19A28D
:1004A000423008F44AE08E010F5D1F4F842E912CDC
:1004B000B12CA12CA50194010E947307E62FB9016C
:1004C000CA01EA3044F5E05DD801EE938D01232B9B
:1004D000242B252B79F790E080E0109769F0FD013F
:1004E00001900020E9F73197AF014A1B5B0BBD017A
:1004F00080ED91E00E948C00A1960FB6F894DEBFCB
:100500000FBECDBFDF91CF911F910F91BF90AF90E4
:100510009F908F900895E95CD7CFCF93DF93EC0144
:1005200060E08E810E94990161E08E810E949901B4
:1005300060E08E810E9499018BE891E00197F1F7CC
:10054000DF91CF910895CF92DF92EF92FF920F93B8
:100550001F93CF93DF936C017C0187E0E80EF11CC1
:10056000D0E0C0E0062F10E0B8010C2E02C0759557
:1005700067950A94E2F76170F70181917F010E940B
:1005800099012196C430D10579F7C601DF91CF9149
:100590001F910F91FF90EF90DF90CF900C948D0200
:1005A000CF92DF92EF92FF920F931F93CF93DF933F
:1005B000EC01F62E642F8C810E9499018D818F3F72
:1005C00019F060E00E9499010F2D10E08F8584FFE3
:1005D00025C06E0187E0C80ED11CF12CE12CB801BA
:1005E0000E2C02C0759567950A94E2F76170F601CA
:1005F00081916F010E949901FFEFEF1AFF0A88E0D5
:10060000E816F10461F7CE01DF91CF911F910F91B0
:10061000FF90EF90DF90CF900C948D02B80184E0B2
:10062000759567958A95E1F7CE010E94A3026F2D1B
:10063000CE01DF91CF911F910F91FF90EF90DF904E
:10064000CF900C94A30240E0682F80ED91E00C94D1
:10065000D002CF93DF93823029F49091DF0198602C
:100660009093DF018093E3011092E40180E4809392
:10067000E50180E18093E60180E58093E70161E098
:100680008091D4010E94E5018091D5018F3F19F03E
:1006900061E00E94E50161E08091D6010E94E501E0
:1006A000C0EDD1E09E01205D31408091DF0184FDED
:1006B0000BC084E090E021962817390744F461E0EC
:1006C0008E810E94E501EECF88E090E0F4CF8BE3CD
:1006D0009DE00197F1F760E08091D4010E949901BB
:1006E00060E08091D6010E9499018091D5018F3FF1
:1006F00019F060E00E9499018091DF0184FD39C00A
:1007000063E080ED91E00E94A302CBE4D6E4CE0149
:100710000197F1F763E080ED91E00E94A302219739
:10072000F1F763E080ED91E00E94A30283E592E09F
:100730000197F1F762E080ED91E00E94A3028091C1
:10074000DF0180620E94230384E08093E0018CE05B
:100750000E94230381E00E9423038BE39FE1019722
:10076000F1F782E08093E10186E0DF91CF910C9474
:10077000230380620E9423038BE496E40197F1F740
:100780008091DF0180620E94230383E592E001975C
:10079000F1F78091DF0180620E942303D0CF41E016
:1007A0000E94D00281E090E008951F920F920FB650
:1007B0000F9211242F933F934F935F936F937F93E7
:1007C0008F939F93AF93BF93EF93FF9383E391E056
:1007D0000E940A01FF91EF91BF91AF919F918F917C
:1007E0007F916F915F914F913F912F910F900FBE2D
:1007F0000F901F9018951F920F920FB60F92112411
:100800002F938F939F93EF93FF93E0914301F09188
:1008100044018081E0914901F0914A0182FD1BC0B1
:10082000908180914C018F5F8F7320914D018217D1
:1008300041F0E0914C01F0E0ED5CFE4F958F80932C
:100840004C01FF91EF919F918F912F910F900FBECF
:100850000F901F9018958081F4CF1F920F920FB6C2
:100860000F9211242F933F938F939F93AF93BF9336
:1008700080912B0190912C01A0912D01B0912E011E
:1008800030912A0123E0230F2D3758F50196A11D41
:10089000B11D20932A0180932B0190932C01A093EA
:1008A0002D01B0932E0180912F0190913001A091E4
:1008B0003101B09132010196A11DB11D80932F012C
:1008C00090933001A0933101B0933201BF91AF9169
:1008D0009F918F913F912F910F900FBE0F901F907E
:1008E000189526E8230F0296A11DB11DD2CFCF92F5
:1008F000DF92EF92FF920F931F93E82FF92F05C01D
:10090000015011092109310961F190819623941751
:10091000B9F305C0015011092109310911F1908184
:1009200096239413F7CFC12CD12CE12CF12C0AC0C3
:100930008FEFC81AD80AE80AF80A0C151D052E050B
:100940003F0579F080818623841791F36C2D7D2DEE
:100950008E2D9F2D1F910F91FF90EF90DF90CF90E4
:10096000089560E070E080E090E01F910F91FF90AB
:10097000EF90DF90CF900895E3E3F1E013821282CD
:1009800088EE93E0A0E0B0E084839583A683B783EC
:1009900084E091E09183808385EC90E09587848763
:1009A00084EC90E09787868780EC90E0918B808B39
:1009B00081EC90E0938B828B82EC90E0958B848B22
:1009C00086EC90E0978B868B118E128E138E148E90
:1009D000E0EDF1E01382128286E191E09183808361
:1009E0008CE084838FEF85838BE086838DE0878323
:1009F0008AE0808789E0818788E082871386148671
:100A000015861686178681E00C942903789484B5A0
:100A1000826084BD84B5816084BD85B5826085BDFA
:100A200085B5816085BD80916E00816080936E0088
:100A3000109281008091810082608093810080917A
:100A4000810081608093810080918000816080932B
:100A500080008091B10084608093B1008091B000EB
:100A600081608093B00080917A00846080937A00E6
:100A700080917A00826080937A0080917A00816010
:100A800080937A0080917A00806880937A00109237
:100A9000C10061E087E00E94E50160E086E00E941D
:100AA000E50161E087E00E94E50160E086E00E94E8
:100AB000E501E0914301F091440182E08083E091FF
:100AC0003F01F09140011082E0914101F09142011B
:100AD0008FEC808310924B01E0914701F091480127
:100AE00086E08083E0914501F0914601808180613C
:100AF0008083E0914501F091460180818860808388
:100B0000E0914501F0914601808180688083E09109
:100B10004501F091460180818F7D808382E00E94B3
:100B20002903CFE0D0E027E3A22EB12C30EA232E18
:100B300030E0332E40E0842E40E0942E60E087E0E9
:100B40000E949901CE010197F1F761E087E00E94D0
:100B50009901C5010197F1F760E087E00E949901D2
:100B6000E4EBF0E06491F1018491E82FF0E0EE0F06
:100B7000FF1FE057FF4F8591949100E412E42FE0AE
:100B800030E0462F0E9477046115710581059105BB
:100B900029F06F5F7F4F8F4F9F4F9F700E947A06A3
:100BA00026E933E44BE05DE30E94DE0620E030E01E
:100BB00040E05FE30E94DE060E9442066B017C017A
:100BC000E1E08091E3018111E0E0E195F0E0E053A4
:100BD000FE4F848980680E94230348E050E06EE164
:100BE00071E080ED91E00E948C004AE0C701B601FF
:100BF000F7FE0EC041E06DE280ED91E00E94D00270
:100C000066277727CB016C197D098E099F094AE079
:100C10000E943F0242E050E067E271E080ED91E027
:100C20000E948C000E9416022B013C018AE0C82E13
:100C3000D12CE12CF12C0E94160264197509860949
:100C40009709683E734081059105A8F3F1E0CF1A3A
:100C5000D108E108F10828EE420E23E0521E611C83
:100C6000711CC114D104E104F10429F78114910429
:100C700009F464CF0E94F600882309F45FCF0E9434
:100C800000005CCF0E9449066894B1110C94D8060C
:100C900008950E94BD0688F09F5798F0B92F9927B4
:100CA000B751B0F0E1F0660F771F881F991F1AF057
:100CB000BA95C9F714C0B13091F00E94D706B1E0DF
:100CC00008950C94D706672F782F8827B85F39F0DE
:100CD000B93FCCF3869577956795B395D9F73EF4F0
:100CE00090958095709561957F4F8F4F9F4F089598
:100CF000E89409C097FB3EF49095809570956195B6
:100D00007F4F8F4F9F4F9923A9F0F92F96E9BB276B
:100D10009395F695879577956795B795F111F8CFE7
:100D2000FAF4BB0F11F460FF1BC06F5F7F4F8F4F52
:100D30009F4F16C0882311F096E911C0772321F048
:100D40009EE8872F762F05C0662371F096E8862FE0
:100D500070E060E02AF09A95660F771F881FDAF737
:100D6000880F9695879597F9089557FD9058440FE9
:100D7000551F59F05F3F71F04795880F97FB991FFA
:100D800061F09F3F79F087950895121613061406B7
:100D9000551FF2CF4695F1DF08C016161706180644
:100DA000991FF1CF86957105610508940895E8941F
:100DB000BB2766277727CB0197F908950E94F10694
:100DC0000C9462070E94540738F00E945B0720F0E1
:100DD000952311F00C944B070C94510711240C949B
:100DE000D8060E94B50670F3959FC1F3950F50E0A9
:100DF000551F629FF001729FBB27F00DB11D639FCD
:100E0000AA27F00DB11DAA1F649F6627B00DA11D72
:100E1000661F829F2227B00DA11D621F739FB00D18
:100E2000A11D621F839FA00D611D221F749F332788
:100E3000A00D611D231F849F600D211D822F762F21
:100E40006A2F11249F5750409AF0F1F088234AF0FE
:100E5000EE0FFF1FBB1F661F771F881F915050406A
:100E6000A9F79E3F510580F00C944B070C94D806CF
:100E70005F3FE4F3983ED4F3869577956795B795F1
:100E8000F795E7959F5FC1F7FE2B880F911D96950B
:100E9000879597F9089597F99F6780E870E060E07B
:100EA00008959FEF80EC089500240A941616170603
:100EB00018060906089500240A941216130614064B
:100EC00005060895092E0394000C11F4882352F0AE
:100ED000BB0F40F4BF2B11F460FF04C06F5F7F4F66
:100EE0008F4F9F4F0895A1E21A2EAA1BBB1BFD0135
:100EF0000DC0AA1FBB1FEE1FFF1FA217B307E407F9
:100F0000F50720F0A21BB30BE40BF50B661F771F50
:100F1000881F991F1A9469F7609570958095909530
:100F20009B01AC01BD01CF010895EE0FFF1F05909D
:0A0F3000F491E02D0994F894FFCF2E
:100F3A00000000002C018C00B9007901EA00C80009
:100F4A00DC0000000000CF038C003C023B02444955
:0A0F5A005354414E434500636D00FF
:00000001FF
